{
  "_format": "hh-sol-artifact-1",
  "contractName": "InvoiceRegistry",
  "sourceName": "contracts/InvoiceRegistry.sol",
  "abi": [
    {
      "anonymous": false,
      "inputs": [
        {
          "indexed": true,
          "internalType": "uint256",
          "name": "invoiceId",
          "type": "uint256"
        },
        {
          "indexed": true,
          "internalType": "address",
          "name": "creator",
          "type": "address"
        }
      ],
      "name": "InvoiceCancelled",
      "type": "event"
    },
    {
      "anonymous": false,
      "inputs": [
        {
          "indexed": true,
          "internalType": "uint256",
          "name": "invoiceId",
          "type": "uint256"
        },
        {
          "indexed": true,
          "internalType": "address",
          "name": "creator",
          "type": "address"
        },
        {
          "indexed": true,
          "internalType": "address",
          "name": "payer",
          "type": "address"
        },
        {
          "indexed": false,
          "internalType": "address",
          "name": "token",
          "type": "address"
        },
        {
          "indexed": false,
          "internalType": "uint256",
          "name": "amount",
          "type": "uint256"
        },
        {
          "indexed": false,
          "internalType": "uint256",
          "name": "dueDate",
          "type": "uint256"
        }
      ],
      "name": "InvoiceCreated",
      "type": "event"
    },
    {
      "anonymous": false,
      "inputs": [
        {
          "indexed": true,
          "internalType": "uint256",
          "name": "invoiceId",
          "type": "uint256"
        },
        {
          "indexed": true,
          "internalType": "address",
          "name": "payer",
          "type": "address"
        },
        {
          "indexed": false,
          "internalType": "uint256",
          "name": "amount",
          "type": "uint256"
        }
      ],
      "name": "InvoicePaid",
      "type": "event"
    },
    {
      "inputs": [
        {
          "internalType": "uint256",
          "name": "invoiceId",
          "type": "uint256"
        }
      ],
      "name": "cancel",
      "outputs": [],
      "stateMutability": "nonpayable",
      "type": "function"
    },
    {
      "inputs": [
        {
          "internalType": "address",
          "name": "payer",
          "type": "address"
        },
        {
          "internalType": "address",
          "name": "token",
          "type": "address"
        },
        {
          "internalType": "uint256",
          "name": "amount",
          "type": "uint256"
        },
        {
          "internalType": "uint256",
          "name": "dueDate",
          "type": "uint256"
        }
      ],
      "name": "createInvoice",
      "outputs": [
        {
          "internalType": "uint256",
          "name": "invoiceId",
          "type": "uint256"
        }
      ],
      "stateMutability": "nonpayable",
      "type": "function"
    },
    {
      "inputs": [
        {
          "internalType": "uint256",
          "name": "invoiceId",
          "type": "uint256"
        }
      ],
      "name": "getInvoice",
      "outputs": [
        {
          "components": [
            {
              "internalType": "address",
              "name": "creator",
              "type": "address"
            },
            {
              "internalType": "address",
              "name": "payer",
              "type": "address"
            },
            {
              "internalType": "address",
              "name": "token",
              "type": "address"
            },
            {
              "internalType": "uint256",
              "name": "amount",
              "type": "uint256"
            },
            {
              "internalType": "uint256",
              "name": "dueDate",
              "type": "uint256"
            },
            {
              "internalType": "enum InvoiceRegistry.Status",
              "name": "status",
              "type": "uint8"
            }
          ],
          "internalType": "struct InvoiceRegistry.Invoice",
          "name": "",
          "type": "tuple"
        }
      ],
      "stateMutability": "view",
      "type": "function"
    },
    {
      "inputs": [
        {
          "internalType": "uint256",
          "name": "",
          "type": "uint256"
        }
      ],
      "name": "invoices",
      "outputs": [
        {
          "internalType": "address",
          "name": "creator",
          "type": "address"
        },
        {
          "internalType": "address",
          "name": "payer",
          "type": "address"
        },
        {
          "internalType": "address",
          "name": "token",
          "type": "address"
        },
        {
          "internalType": "uint256",
          "name": "amount",
          "type": "uint256"
        },
        {
          "internalType": "uint256",
          "name": "dueDate",
          "type": "uint256"
        },
        {
          "internalType": "enum InvoiceRegistry.Status",
          "name": "status",
          "type": "uint8"
        }
      ],
      "stateMutability": "view",
      "type": "function"
    },
    {
      "inputs": [],
      "name": "nextInvoiceId",
      "outputs": [
        {
          "internalType": "uint256",
          "name": "",
          "type": "uint256"
        }
      ],
      "stateMutability": "view",
      "type": "function"
    },
    {
      "inputs": [
        {
          "internalType": "uint256",
          "name": "invoiceId",
          "type": "uint256"
        }
      ],
      "name": "pay",
      "outputs": [],
      "stateMutability": "nonpayable",
      "type": "function"
    }
  ],
  "bytecode": "0x6080604052600160005534801561001557600080fd5b5061086e806100256000396000f3fe608060405234801561001057600080fd5b50600436106100625760003560e01c80633a23cc0a1461006757806340e58ee5146100905780634c8024dc146100a55780634e6d1405146100c65780636ff2a9531461012f578063c290d69114610138575b600080fd5b61007a610075366004610698565b61014b565b60405161008791906106e9565b60405180910390f35b6100a361009e366004610698565b610215565b005b6100b86100b3366004610760565b61030b565b604051908152602001610087565b61011d6100d4366004610698565b60016020819052600091825260409091208054918101546002820154600383015460048401546005909401546001600160a01b0395861695938416949390921692909160ff1686565b604051610087969594939291906107a2565b6100b860005481565b6100a3610146366004610698565b6104fc565b6101816040805160c08101825260008082526020820181905291810182905260608101829052608081018290529060a082015290565b600082815260016020818152604092839020835160c08101855281546001600160a01b03908116825293820154841692810192909252600280820154909316938201939093526003830154606082015260048301546080820152600583015490929160a084019160ff16908111156101fb576101fb6106b1565b600281111561020c5761020c6106b1565b90525092915050565b600081815260016020526040902080546001600160a01b031633146102735760405162461bcd60e51b815260206004820152600f60248201526e2737ba103a34329031b932b0ba37b960891b60448201526064015b60405180910390fd5b6000600582015460ff16600281111561028e5761028e6106b1565b146102cb5760405162461bcd60e51b815260206004820152600d60248201526c10d85b9b9bdd0818d85b98d95b609a1b604482015260640161026a565b60058101805460ff19166002179055604051339083907f1893bd55c53ca5d28463267b3794ea27b1c3fc3b0cc5f86e0c5b613ad4156f0890600090a35050565b60008083116103515760405162461bcd60e51b81526020600482015260126024820152710416d6f756e74206d757374206265203e20360741b604482015260640161026a565b6001600160a01b0385166103975760405162461bcd60e51b815260206004820152600d60248201526c24b73b30b634b2103830bcb2b960991b604482015260640161026a565b6000805490806103a6836107e8565b9190505590506040518060c00160405280336001600160a01b03168152602001866001600160a01b03168152602001856001600160a01b0316815260200184815260200183815260200160006002811115610403576104036106b1565b9052600082815260016020818152604092839020845181546001600160a01b03199081166001600160a01b03928316178355928601518285018054851691831691909117905593850151600280830180549094169190951617909155606084015160038201556080840151600482015560a084015160058201805492949193909260ff191691849081111561049a5761049a6106b1565b021790555050604080516001600160a01b038781168252602082018790529181018590529087169150339083907fdcad614d2fbed8b94f457a27d9fe3b60ca9f87f689ce9997cc9d6110366199069060600160405180910390a4949350505050565b6000818152600160208190526040909120908101546001600160a01b031633146105585760405162461bcd60e51b815260206004820152600d60248201526c2737ba103a3432903830bcb2b960991b604482015260640161026a565b6000600582015460ff166002811115610573576105736106b1565b146105b65760405162461bcd60e51b8152602060048201526013602482015272496e766f696365206e6f742070617961626c6560681b604482015260640161026a565b60058101805460ff191660011790556002810154815460038301546040516323b872dd60e01b81523360048201526001600160a01b03928316602482015260448101919091529116906323b872dd906064016020604051808303816000875af1158015610627573d6000803e3d6000fd5b505050506040513d601f19601f8201168201806040525081019061064b919061080f565b50336001600160a01b0316827fa6abfda59e12fa300d17e1aa76bd3233eaf23ee4feb4b02b6516ad1d60be8400836003015460405161068c91815260200190565b60405180910390a35050565b6000602082840312156106aa57600080fd5b5035919050565b634e487b7160e01b600052602160045260246000fd5b600381106106e557634e487b7160e01b600052602160045260246000fd5b9052565b600060c08201905060018060a01b0380845116835280602085015116602084015280604085015116604084015250606083015160608301526080830151608083015260a083015161073d60a08401826106c7565b5092915050565b80356001600160a01b038116811461075b57600080fd5b919050565b6000806000806080858703121561077657600080fd5b61077f85610744565b935061078d60208601610744565b93969395505050506040820135916060013590565b6001600160a01b038781168252868116602083015285166040820152606081018490526080810183905260c081016107dd60a08301846106c7565b979650505050505050565b60006001820161080857634e487b7160e01b600052601160045260246000fd5b5060010190565b60006020828403121561082157600080fd5b8151801515811461083157600080fd5b939250505056fea26469706673582212206fdfbe69e10f19863059d5cb2e68ac3f62161304a3fc4621ee46a8b42ed98eea64736f6c63430008180033",
  "linkReferences": {},
  "deployedLinkReferences": {}
}